:100000000C9464030C948C030C948C030C948C035C
:100010000C948C030C948C030C948C030C948C0324
:100020000C948C030C948C030C94330F0C94A50F3C
:100030000C948C030C948C030C948C030C948C0304
:100040000C948C030C948C030C948C030C948C03F4
:100050000C948C030C948C030C948C030C94B517A7
:100060000C948C030C944A120C9424120C948C0360
:100070000C948C030C948C030C948C030C948C03C4
:100080000C948C030C948C030C948C030C948C03B4
:100090000C948C030C948C030C948C030C948C03A4
:1000A0000C948C030C948C030C948C03451448140E
:1000B00037143B143F146914691469144C14501418
:1000C00054145A145E1469146414000000002400CF
:1000D00027002A002D00300072756E2D627269644F
:1000E00067650A000A000A0057616974696E672033
:1000F000666F72207468652059756E20746F206376
:100100006F6E6E65637420746F20746865206E6511
:1001100074776F726B00496E73657274206120741E
:10012000776F206C65747465727320636F756E747D
:100130007920636F6465202865672049542C205519
:10014000532C204445293A20004F6E65206C617382
:1001500074207175657374696F6E3A207768657283
:100160006520646F20796F75206C6976653F00505B
:10017000617373776F72643A20004E616D653A2047
:100180000057652061726520616C6D6F7374206427
:100190006F6E652120476976652061206E616D650F
:1001A00020616E6420612070617373776F726420C8
:1001B000746F20796F75722059756E00577269746B
:1001C0006520697420686572653A20004974206C66
:1001D0006F6F6B73206C696B6520796F75206E652E
:1001E000656420612070617373776F726420746F2F
:1001F00020636F6E6E65637420746F2000576869AA
:100200006368206F6E6520646F20796F7520776159
:100210006E7420746F20636F6E6E65637420746FEC
:100220003F0A00206E6574776F726B732061726F86
:10023000756E6420796F7520004974206C6F6F6B48
:1002400073206C696B6520796F7520686176652015
:1002500000456E6372797074696F6E20286567203F
:100260005750412C20575041322C20574550293AA5
:10027000200050617373776F726420666F72207410
:100280006865206E6574776F726B20796F75207763
:10029000616E7420746F20636F6E6E65637420747A
:1002A0006F3A200053534944206F662074686520DC
:1002B0006E6574776F726B20796F752077616E74DD
:1002C00020746F20636F6E6E65637420746F3A20C4
:1002D000004C6574277320636F6E6669677572657D
:1002E000206974206D616E75616C6C79004F6F7060
:1002F000732C206974207365656D73207468617454
:1003000020796F752068617665206E6F2057694689
:1003100069206E6574776F726B20617661696C61BC
:10032000626C65006977696E666F20776C616E300C
:10033000207363616E207C20677265702045535383
:100340004944207C20637574202D64225C22222085
:100350002D6632006977696E666F207C2067726552
:100360007020224D6F64653A204D6173746572226E
:100370000028696E20746865206D65616E77686914
:100380006C652C20696620796F7520617265207517
:1003900073696E672074686520494445277320732C
:1003A000657269616C206D6F6E69746F722C206D5F
:1003B000616B65207375726520746861742069745F
:1003C000277320636F6E6669677572656420746F4A
:1003D0002073656E64206120224E65776C696E65BE
:1003E00022290A0057616974696E672E2E2E005704
:1003F00068656E204C454420284C313329207769AC
:100400006C6C206C69676874207570207765276C48
:100410006C20626520726561647920746F20676F5B
:1004200021004C65742773207374617274206279A3
:1004300020636F6D6D756E69636174696E67207797
:1004400069746820746865204C696E7578207072D4
:100450006F636573736F720049276C6C2068656CFD
:100460007020796F7520636F6E6669677572696E4B
:100470006720796F75722059756E20696E20612032
:100480006D6174746572206F66206D696E75746538
:10049000730049276D20796F75722059756E206140
:1004A0007373697374616E7420736B657463680031
:1004B000486921204E69636520746F20736565204B
:1004C000796F752100080B00020202010009040087
:1004D00000010202000005240010010524010101B1
:1004E00004240206052406000107058103100040CC
:1004F00009040100020A0000000705020240000092
:10050000070583024000000403090412010002EF02
:100510000201404123418000010102030141726454
:1005200075696E6F204C4C430041726475696E6F43
:100530002059756E0000000000250028002B002EB9
:10054000003100040404040403040502020202044E
:10055000030202020206060606060604040202025E
:1005600004040408020110408040102040804080B4
:100570000802040180402010020110801020404039
:10058000200000000200090F0000030401000C001D
:10059000000000000000000000000000000000005B
:1005A00050726573732027456E74657227206B65E2
:1005B0007920747769636520746F20737461727435
:1005C00020612073657269616C207465726D696E5B
:1005D000616C000A47726561742120596F75206350
:1005E000616E206E6F7720726561636820796F7528
:1005F000722059756E2066726F6D20612062726F75
:100600007773657220747970696E6720687474708E
:100610003A2F2F002F7573722F62696E2F707265DB
:100620007474792D776966692D696E666F2E6C75A5
:1006300061207C20677265702022495020616464CB
:100640007265737322207C20637574202D663220BE
:100650002D64223A22207C20637574202D6631207F
:100660002D64222F220052657374617274207468A5
:100670006520626F61726420696620796F752077EA
:10068000616E7420746F206578656375746520747D
:1006900068652077697A61726420616761696E00BC
:1006A000576520636F756C646E277420636F6E6E80
:1006B00065637420746F20746865206E6574776F4D
:1006C000726B2E00FA18E31811241FBECFEFDAE088
:1006D000DEBFCDBF25E0A6E7B4E001C01D92AE3D70
:1006E000B207E1F714E0A0E0B1E0E6E8FDE302C004
:1006F00005900D92A637B107D9F713E0C3E6D3E012
:1007000004C02197FE010E94911CC236D107C9F78F
:100710000E9480190C94B61E0C940000CF93DF93B6
:100720001F92CDB7DEB76983DC01ED91FC910280A9
:10073000F381E02D41E050E0BE016F5F7F4F0995EE
:100740000F90DF91CF91089583E08093E90080912D
:10075000F200882319F08AE38093E8000895FC01F1
:100760008485958597FD0BC09FB7F89482E08093B0
:10077000E9008091F2009FBF90E0019608959FB735
:10078000F89482E08093E9008091F2009FBF90E0AE
:100790000895089580E090E008958F929F92AF921F
:1007A000BF92CF92DF92EF92FF920F931F93CF935E
:1007B000DF936C017B018A0180910B01882309F48E
:1007C0005CC080917C04882309F457C08091CA05DD
:1007D00080FF05C08091E00082608093E000E80126
:1007E000B12C8AEFA82E93E0892E2AE3922E20972F
:1007F00011F4BB20D9F10E947E1481110AC0AA9481
:10080000AA20D9F161E070E080E090E00E94A3149A
:10081000EECF282F30E0C217D3070CF48C2F9FB7F0
:10082000F8948092E9002091E80025FF1DC0282F50
:1008300030E0C21BD30BF701815020F0419140936F
:10084000F100FACFE20EF31EBB2019F09092E800FF
:100850000AC08091E80085FD07C09092E800BB24A3
:10086000B394209709F0B12C9FBFC1CF5D9884E667
:10087000809376041016110644F081E090E0F601B2
:100880009383828380E090E001C0C801DF91CF9123
:100890001F910F91FF90EF90DF90CF90BF90AF909E
:1008A0009F908F9008950E947E1490E008950F937A
:1008B0001F93CF93DF931F92CDB7DEB78C01FC015E
:1008C0008485958597FF0EC0CE0101960E941C136A
:1008D000019719F4898190E002C08FEF9FEFF80132
:1008E00095878487F801848595850F90DF91CF9156
:1008F0001F910F910895CF93DF931F92CDB7DEB76D
:10090000FC018485958597FD05C02FEF3FEF358766
:1009100024870BC0CE0101960E941C13019719F485
:10092000898190E002C08FEF9FEF0F90DF91CF9110
:100930000895CF93DF93EC010E9476168A8988236D
:1009400031F08B89C80FD11D8C8990E002C08FEFE8
:100950009FEFDF91CF910895CF93DF93EC010E9439
:1009600076168A89882359F081508A8B8B8991E089
:10097000980F9B8BC80FD11D8C8990E002C08FEF20
:100980009FEFDF91CF910895CF93DF93EC010E9409
:1009900076168A8990E0DF91CF910895CF93DF9307
:1009A000EC018D819E81DC01ED91FC910084F1854B
:1009B000E02D09951816190654F48D819E81DC01ED
:1009C000ED91FC910284F385E02D0995EACFDF914A
:1009D000CF9108958F929F92AF92BF92CF92DF9264
:1009E000EF92FF92CF93DF93EC018FB7F894809052
:1009F000CC059090CD05A090CE05B090CF058FBFCF
:100A00006B01E12CF12C8D819E81DC01ED91FC913B
:100A10000284F385E02D099597FF16C02FB7F8944F
:100A20008091CC059091CD05A091CE05B091CF05D8
:100A30002FBF88199909AA09BB098C159D05AE0518
:100A4000BF0508F38FEF9FEFDF91CF91FF90EF90FD
:100A5000DF90CF90BF90AF909F908F900895FC0152
:100A6000238134812627022E2295207F2025032EE4
:100A7000322F22952F700226269532272327220F08
:100A8000220F220F2025348323830895CF92DF92F3
:100A9000EF92FF920F931F93C12CD12CE12CF12CDC
:100AA00000E010E020E030E00E94DD141F910F9183
:100AB000FF90EF90DF90CF900895CF93DF9300D019
:100AC0001F92CDB7DEB729E42983FC0126852A834E
:100AD0006B8343E050E0BE016F5F7F4F8485958557
:100AE0000E94460581E090E00F900F900F90DF91FB
:100AF000CF9108956F927F928F929F92AF92BF9203
:100B0000CF92DF92EF92FF920F931F93CF93DF93D9
:100B1000CDB7DEB7C05FD1090FB6F894DEBF0FBE08
:100B2000CDBF8FEF9FEF90938A048093890410913B
:100B30000B016AE070E080E090E00E94A3141123B2
:100B4000B1F380EB94E00E949B1382E994E00E9451
:100B50009B1388E594E00E949B1382E294E00E943C
:100B60009B138FEE93E00E949B1384EE93E00E9410
:100B70009B1381E793E00E949B13EFE6F5E024913D
:100B8000E0E5F5E08491882399F090E0880F991FC3
:100B9000FC01E653FF4FA591B491FC01EB5CFA4FC9
:100BA000859194918FB7F894EC91E22BEC938FBFE1
:100BB00080E00E941F1440E950ED63E070E08091F6
:100BC0007305909174050E949712809171058111AF
:100BD000D9C081E0809371058AE695E00E94CE0439
:100BE00068EE73E080E090E00E94A31480916F05AE
:100BF00090917005DC01ED91FC910084F185E02D70
:100C000009951816190644F3BB24B39432E3A32EB6
:100C100085E0E2E1F1E0DE01AB5ABF4F01900D92B9
:100C20008A95E1F7B092720545E050E0BE016B5A3B
:100C30007F4F8AE695E00E94460580916F0590916E
:100C40007005DC01ED91FC910190F081E02D63E0F5
:100C500009956AEF70E080E090E00E94A31466EED0
:100C600070E080916F05909170050E94D7116AEF36
:100C700070E080E090E00E94A31464EE70E0809148
:100C80006F05909170050E94D71164EF71E080E0CC
:100C900090E00E94A31468ED70E080916F05909140
:100CA00070050E94D71164EF71E080E090E00E942F
:100CB000A3148AE695E00E94CE0485E0E7E1F1E026
:100CC000DE01119601900D928A95E1F7A0927205CE
:100CD00024E0C22ED12CFE01E755FF4F7F0100E03A
:100CE00010E020E030E045E050E0BE016F5F7F4F54
:100CF0008AE695E00E94DD148F3FFFEF9F0739F4ED
:100D000068EE73E080E090E00E94A31481CFC755A5
:100D1000DF4F2881C95AD0402111FFCF049749F5F0
:100D2000C655DF4F2881CA5AD04030E020533109E0
:100D300084E6829FA001839F500D1124C555DF4F8B
:100D40002881CB5AD04030E0205331096AE0629FBD
:100D5000C001639F900D1124840F951FC455DF4F70
:100D60002881CC5AD04030E020533109820F931FA4
:100D700002C084E690E090936C0580936B0582E35B
:100D80008093720581E00E941F1469961FAE1EAE0B
:100D9000699788EE93E0A0E0B0E06D968CAF9DAFD0
:100DA000AEAFBFAF6D9785E791E067969FAF8EAF0F
:100DB00067978AE695E0A3969FAF8EAFA397A79615
:100DC0001FAEA797A8961FAEA897A9961FAEA99782
:100DD00064E573E0CE0101960E94CC0EBE016F5F08
:100DE0007F4FCE018B5A9F4F0E94B516CE010196C0
:100DF0000E94C70ECE018B5A9F4F0E947616A8966E
:100E00008FADA897882331F0CE018B5A9F4F0E9457
:100E1000AC04F0CF64E273E0CE0101960E94CC0EE8
:100E2000BE016F5F7F4FCE018B5A9F4F0E94B51658
:100E3000CE0101960E94C70E60E270E081E895E065
:100E40000E946D0E912C96E0792ECE018B5A9F4F09
:100E50000E947616A8968FADA897882309F478C0CB
:100E600029E0291508F474C0CE018B5A9F4F0E94C7
:100E7000AC04682FC92CD12C8A3051F07C9CC00165
:100E80007D9C900D11248F579A4F0E94B918DDCF89
:100E900001E815E0612C812C7C9CC0017D9C900DAB
:100EA0001124DC01AF57BA4F7D015D01B4E0AB0EF8
:100EB000B11C961499F1F50120813181D801149665
:100EC0008D919C9115972817390721F5F70180819D
:100ED00091816D917C91009719F061157105A1F4D4
:100EE0006115710549F0232B99F0DB018C9190E09D
:100EF0009195819591090AC0009751F0232B41F0FB
:100F0000FC01808190E002C00E948C1E892B11F4AC
:100F10008824839463940A5F1F4FCBCF7C9CC001CD
:100F20007D9C900D11248F579A4FDC01ED91FC911F
:100F30002081203241F0811006C0939460E270E07D
:100F40000E946D0E82CF63E074E00E94CC187DCFCA
:100F500063E074E0CE0181529F4F0E941E0F63E058
:100F600074E0CE018B519F4F0E941E0F91107AC0EA
:100F70008DEE92E00E949B1381ED92E00E949B1304
:100F800084EA92E00E949B1361E875E0CE0101962D
:100F90000E94040F40E0BE016F5F7F4FCE01875576
:100FA0009F4F0E944A13BE0167557F4F81E895E02D
:100FB0000E94330ECE0187559F4F0E94C70ECE016F
:100FC00001960E94C70E82E792E00E949B13BE0129
:100FD0006B517F4FCE0101960E94040F41E0BE018C
:100FE0006F5F7F4FCE0187559F4F0E944A13BE010E
:100FF00067557F4FCE018B519F4F0E94330ECE011C
:1010000087559F4F0E94C70ECE0101960E94C70EC2
:1010100061E572E08DE794E00E94D711BE01615254
:101020007F4FCE0101960E94040F40E0BE016F5F2A
:101030007F4FCE0187559F4F0E944A13BE016755CF
:101040007F4FCE0181529F4F0E94330ECE018755B4
:101050009F4F0E94C70ECE0101960E94C70EE12C41
:10106000F12C63C069E372E08DE794E00E94D71130
:10107000892D0E94DF1383E292E00E949B138DEF83
:1010800091E00E949B1381E8E82E85E0F82E10E0A5
:10109000812F0E94DF1363E871E0CE0101960E9468
:1010A0001E0FB701CE0101960E94A6180E94AE1332
:1010B000CE0101960E94C70E1F5F911629F0B6E07F
:1010C000EB0EF11C1A3021F763E074E0CE010196BB
:1010D0000E941E0FBE016F5F7F4FCE0187559F4F4D
:1010E0000E94040F40E0BE0167557F4FCE0181553D
:1010F0009F4F0E944A13BE0161557F4FCE0101965A
:101100000E94330ECE0181559F4F0E94C70ECE0123
:1011100087559F4F0E94C70E89819A810E94F61BB6
:101120007C01CE0101960E94C70E86E08E9D800153
:101130008F9D100D11240F571A4F66E871E0CE01F4
:1011400001960E941E0FB801CE0101960E94A618BA
:1011500061EA71E00E948D18BC01CE018B5A9F4F4D
:101160000E94B516CE0101960E94C70ECE018B5A81
:101170009F4F0E947616A8968FADA897882361F09E
:10118000CE018B5A9F4F0E94AC04682FCE01815232
:101190009F4F0E94B918EACF69EC71E0CE01019629
:1011A0000E941E0FBE016F5F7F4FCE0181529F4F85
:1011B0000E94C5137C01CE0101960E94C70EF7FC68
:1011C0000AC069EC71E0CE0181529F4F0E94CC1899
:1011D000FF24F39401C0F12C6EEC71E0CE01019676
:1011E0000E941E0FBE016F5F7F4FCE0181529F4F45
:1011F0000E94C5136C01CE0101960E94C70ED7FC58
:1012000007C063ED71E0CE0181529F4F0E94CC1860
:1012100068ED71E0CE0101960E941E0FBE016F5F66
:101220007F4FCE0181529F4F0E94C5136C01CE01AA
:1012300001960E94C70ED7FC07C06CED71E0CE018D
:1012400081529F4F0E94CC1860EE71E0CE01019652
:101250000E941E0FBE016F5F7F4FCE0181529F4FD4
:101260000E94C5136C01CE0101960E94C70ED7FCE7
:1012700007C064EE71E0CE0181529F4F0E94CC18EE
:10128000F11009C0C751DF4F88819981C95ED040F4
:10129000892B09F4E8C281E891E00E949B136AE778
:1012A00071E08DE794E00E94D7116BE775E0CE0105
:1012B00001960E94040F40E0BE016F5F7F4FCE0198
:1012C00087559F4F0E944A13BE0167557F4F8BE79A
:1012D00095E00E94330ECE0187559F4F0E94C70EA6
:1012E000CE0101960E94C70E6FE671E08DE794E093
:1012F0000E94D71165E775E0CE0101960E94040FA8
:1013000041E0BE016F5F7F4FCE0187559F4F0E9426
:101310004A13BE0167557F4F85E795E00E94330E63
:10132000CE0187559F4F0E94C70ECE0101960E94A5
:10133000C70E63E074E0CE0185519F4F0E941E0FDF
:1013400089E491E00E949B1366E171E08DE794E0EF
:101350000E94D711BE0165517F4FCE0101960E94B8
:10136000040F40E0BE016F5F7F4FCE0187559F4F56
:101370000E944A13BE0167557F4FCE0185519F4F92
:101380000E94330ECE0187559F4F0E94C70ECE019B
:1013900001960E94C70E8BE795E00E94FF1785E734
:1013A00095E00E94FF17C8010E94FF17CE018B51E4
:1013B0009F4F0E94FF17CE0185519F4F0E94FF173C
:1013C000BE0161527F4FCE0187529F4F0E94040F92
:1013D000BE0165517F4FCE018D529F4F0E94040F79
:1013E00068EE71E0CE0189539F4F0E941E0F6BE79C
:1013F00075E0CE0189539F4F0E94A6186CEE71E0F4
:101400000E948D18BC01CE0183539F4F0E94040F90
:10141000BE016B517F4FCE018F539F4F0E94040F2F
:10142000B801CE0185549F4F0E94040F65E775E017
:10143000CE018B549F4F0E94040F6BE775E0CE01E5
:1014400081559F4F0E94040F1C821B8288EE93E0FF
:10145000A0E0B0E08D839E83AF83B88705E711E0FD
:101460001A8309838AE695E09E878D871A8A1B8AEC
:101470001C8A6FEE71E0CE0187559F4F0E941E0FB0
:10148000BE0167557F4FCE0101960E94B516CE0171
:1014900087559F4F0E94C70E6FEF71E0CE018755B1
:1014A0009F4F0E941E0FBE0161557F4FCE01875591
:1014B0009F4F0E94A618BC01CE0101960E94B5164E
:1014C000CE0187559F4F0E94C70E69E072E0CE01A2
:1014D00087559F4F0E941E0FBE0161557F4FCE0161
:1014E00087559F4F0E94A61861EE72E00E948D18EA
:1014F000BC01CE0101960E94B516CE0187559F4FC3
:101500000E94C70E6EE272E0CE0187559F4F0E9487
:101510001E0FBE0163537F4FCE0187559F4F0E9420
:10152000A61861EE72E00E948D18BC01CE010196F2
:101530000E94B516CE0187559F4F0E94C70E63E6E5
:1015400072E0CE0187559F4F0E941E0FBE01675269
:101550007F4FCE0187559F4F0E94A61861EE72E023
:101560000E948D18BC01CE0101960E94B516CE01D5
:1015700087559F4F0E94C70E60E972E0CE018755E4
:101580009F4F0E941E0FBE0167557F4FCE010196EF
:101590000E94B516CE0187559F4F0E94C70E6CEB77
:1015A00072E0CE0187559F4F0E941E0FBE01655409
:1015B0007F4FCE0187559F4F0E94A61861EE72E0C3
:1015C0000E948D18BC01CE0101960E94B516CE0175
:1015D00087559F4F0E94C70E63EE72E0CE0187557C
:1015E0009F4F0E941E0FBE016F537F4FCE01875544
:1015F0009F4F0E94A61861EE72E00E948D18BC01F8
:10160000CE0101960E94B516CE0187559F4F0E94CC
:10161000C70E69E073E0CE0187559F4F0E941E0FF1
:10162000BE0167557F4FCE0101960E94B516CE01CF
:1016300087559F4F0E94C70E60E373E0CE01875528
:101640009F4F0E941E0FBE016D527F4FCE018755E6
:101650009F4F0E94A61861EE72E00E948D18BC0197
:10166000CE0101960E94B516CE0187559F4F0E946C
:10167000C70E62E573E0CE0187559F4F0E941E0F93
:10168000BE0167557F4FCE0101960E94B516CE016F
:1016900087559F4F0E94C70E60E773E0CE018755C4
:1016A0009F4F0E941E0FBE0167557F4FCE010196CE
:1016B0000E94B516CE0187559F4F0E94C70E6FE856
:1016C00073E0CE0187559F4F0E941E0FBE016755E4
:1016D0007F4FCE0101960E94B516CE0187559F4FD0
:1016E0000E94C70E60EB73E0CE0187559F4F0E94AA
:1016F0001E0FBE016B547F4FCE0187559F4F0E9436
:10170000A61862E074E00E948D18BE016B547F4FF2
:101710000E94A6186AEB73E00E948D18BC01CE01EE
:1017200001960E94B516CE0187559F4F0E94C70EA5
:101730006AEC73E0CE0187559F4F0E941E0FBE01D9
:1017400067557F4FCE0101960E94B516CE01875591
:101750009F4F0E94C70E65ED73E0CE0187559F4FE6
:101760000E941E0FBE0167557F4FCE0101960E9459
:10177000B516CE0187559F4F0E94C70E60EE73E0ED
:10178000CE0187559F4F0E941E0FBE0167557F4FA8
:10179000CE0101960E94B516CE0187559F4F0E943B
:1017A000C70E1A830983CE0101960E94FA12CE0158
:1017B00081559F4F0E94C70ECE018B549F4F0E94B0
:1017C000C70ECE0185549F4F0E94C70ECE018F5386
:1017D0009F4F0E94C70ECE0183539F4F0E94C70E9A
:1017E000CE0189539F4F0E94C70ECE018D529F4F4D
:1017F0000E94C70ECE0187529F4F0E94C70E68EE0F
:1018000070E08DE794E00E94D711CE0185519F4F83
:101810000E94C70ECE018B519F4F0E94C70ECE0172
:1018200081529F4F0E94C70E67961FAF0EAF6797FA
:10183000CE018B5A9F4F0E94FA12C051DF4F0FB654
:10184000F894DEBF0FBECDBFDF91CF911F910F91F6
:10185000FF90EF90DF90CF90BF90AF909F908F90D0
:101860007F906F9008956CEC71E08DE794E00E949A
:10187000D711C8010E94AE136CEB71E08DE794E0C4
:101880000E94D711BE016B517F4FCE0101960E947D
:10189000040F41E0BE016F5F7F4FCE0187559F4F20
:1018A0000E944A13BE0167557F4FCE018B519F4F57
:1018B0000E94330ECE0187559F4F0E94C70ECE0166
:1018C00001960E94C70EE7CC08954091790450918B
:1018D0007A04209177043091780442175307B4F4C6
:1018E0009091E8009570E1F39091E80092FD19C0A5
:1018F0008093F1008091790490917A0401968F731E
:101900009927892B19F48EEF8093E8008091790450
:1019100090917A04019690937A048093790481E0FF
:10192000089580E00895DF92EF92FF920F931F9346
:10193000CF93DF93D82EF92EE42E062F10E0C801A6
:101940000196880F0E94650C83E00E94650CCD2DE6
:10195000DF2D0C0F1D1FC017D10789F0E7FE03C054
:10196000FE01849101C088810E94650CF82E80E000
:101970000E94650C8F2121968111EDCF01C081E07D
:10198000DF91CF911F910F91FF90EF90DF9008951D
:10199000DF92EF92FF920F931F93CF93DF93D82E96
:1019A0008A017B01E40EF51EEB01CE15DF0571F017
:1019B000D7FE03C0FE01849101C088810E94650C9E
:1019C00021968111F2CF8FEF9FEF01C0C801DF9107
:1019D000CF911F910F91FF90EF90DF90089561508C
:1019E00030F02091F100FC0120830196F8CF289877
:1019F00084E680937B040895CF92DF92EF92FF926A
:101A00000F931F93CF93DF936C017A018B01C0E09A
:101A1000D0E0CE15DF0581F0D8016D918D01D601A2
:101A2000ED91FC910190F081E02DC6010995892B83
:101A300011F02196EECF7E01C701DF91CF911F916A
:101A40000F91FF90EF90DF90CF900895FC01538DA0
:101A5000448D252F30E0842F90E0821B930B541788
:101A600010F0CF96089501970895FC01918D828D15
:101A7000981761F0828DDF01A80FB11D5D968C91E2
:101A8000928D9F5F9F73928F90E008958FEF9FEFED
:101A90000895FC01918D828D981731F0828DE80FA9
:101AA000F11D858D90E008958FEF9FEF0895FC0163
:101AB000918D228D892F90E0805C9F4F821B910930
:101AC0008F73992708958DEC94E00E94570D21E0C3
:101AD000892B09F420E0822F0895FC01848DDF0119
:101AE000A80FB11DA35ABF4F2C91848D90E0019691
:101AF0008F739927848FA689B7892C93A089B18980
:101B00008C9180648C93938D848D981306C0028889
:101B1000F389E02D80818F7D80830895EF92FF927D
:101B20000F931F93CF93DF93EC0181E0888F9B8D00
:101B30008C8D981305C0E889F989808185FD24C0C2
:101B4000F62E0B8D10E00F5F1F4F0F731127E02E45
:101B50008C8DE8120CC00FB607FCFACFE889F98922
:101B6000808185FFF5CFCE010E946D0DF1CF8B8D69
:101B7000FE01E80FF11DE35AFF4FF0820B8FEA8957
:101B8000FB898081806207C0EE89FF896083E889D4
:101B9000F98980818064808381E090E0DF91CF913A
:101BA0001F910F91FF90EF900895CF93DF93EC0179
:101BB000888D8823C9F0EA89FB89808185FD05C06D
:101BC000A889B9898C9186FD0FC00FB607FCF5CFA7
:101BD000808185FFF2CFA889B9898C9185FFEDCFEF
:101BE000CE010E946D0DE7CFDF91CF91089580E087
:101BF00090E0892B29F00E94630D81110C94000064
:101C000008950F931F93CF93DF931F92CDB7DEB745
:101C100082E0898342E450E065EC74E080E80E9451
:101C2000C80C0E948F14DC0112960D911C91139721
:101C30000115110589F0D801ED91FC910280F38125
:101C4000E02DBE016F5F7F4FC801099597FD04C06D
:101C5000F80100851185ECCF89810F90DF91CF913C
:101C60001F910F9108950F931F93CF93DF938C01D2
:101C7000EB01FC0180819181009739F068817981C5
:101C800061157105A1F40E942F1D88819981F801C9
:101C9000918380838A819B81938382838C819D81C0
:101CA00095838483198218821B821A820FC0F801DF
:101CB000428153812C813D814217530720F30E94BA
:101CC000951E8C819D81F801958384831D821C82E1
:101CD000DF91CF911F910F9108950F931F93CF9391
:101CE000DF93EC0188819981009729F02A813B815B
:101CF0002617370788F48B016F5F7F4F0E94B81D4E
:101D0000009761F0998388831B830A832C813D812E
:101D1000232B11F4FC01108281E001C080E0DF91EF
:101D2000CF911F910F910895CF93DF93EC0188819C
:101D30009981009711F00E942F1D198218821D822F
:101D40001C821B821A82DF91CF910895EF92FF923D
:101D50000F931F93CF93DF93EC017B018A01BA01AC
:101D60000E946D0E811104C0CE010E94940E07C026
:101D70001D830C83B701888199810E94951ECE0135
:101D8000DF91CF911F910F91FF90EF900895FC018B
:101D9000808191810C942F1DEF92FF920F931F93DE
:101DA000CF93DF93EC01198218821B821A821D8265
:101DB0001C826115710509F18B01CB010E941B1C6E
:101DC0007C01BC01CE010E946D0E811109C0CE01C3
:101DD000DF91CF911F910F91FF90EF900C94940E93
:101DE000FD82EC82B80188819981DF91CF911F91AA
:101DF0000F91FF90EF900C94141CDF91CF911F91E5
:101E00000F91FF90EF900895FB01DC0111961C9259
:101E10001E9213961C921E92129715961C921E9259
:101E200014978617970749F06081718161157105D4
:101E300021F0448155810C94A60E0895FC01118275
:101E4000108213821282158214826115710551F07D
:101E5000FB0101900020E9F73197AF01461B570BBA
:101E60000C94A60E08951F920F920FB60F92112494
:101E70008F939F938091E1009091E100937F9093E5
:101E8000E10083FF0FC01092E90091E09093EB0016
:101E90001092EC0092E39093ED0010927C0498E095
:101EA0009093F00082FF20C093E09093E90090911E
:101EB000F200992319F09AE39093E8009091760448
:101EC000992339F090917604915090937604992358
:101ED00089F190917B04992339F090917B04915082
:101EE00090937B04992341F184FF10C08091E2001C
:101EF0008E7E81608093E2008091E1008F7E8093EE
:101F0000E1008091CA058E7E806111C080FF16C0FD
:101F10008091E2008E7E80618093E2008091E100FA
:101F20008E7E8093E1008091CA058E7E81608093D1
:101F3000CA0504C05D9ACDCF289AD6CF9F918F91C4
:101F40000F900FBE0F901F9018951F920F920FB613
:101F50000F921124CF92DF92EF92FF920F931F9373
:101F60002F933F934F935F936F937F938F939F93A1
:101F7000AF93BF93EF93FF93CF93DF93CDB7DEB7CC
:101F80006C97DEBFCDBF1092E9008091E80083FF1F
:101F9000EFC168E0CE0145960E94EF0C82EF80937E
:101FA000E8008D8987FF05C09091E80090FFFCCF85
:101FB00003C09EEF9093E800982F907609F0C6C07A
:101FC0009E894F89588D2F89F88C91110CC08038CB
:101FD00029F48091CB058093F10002C01092F100AA
:101FE0001092F100BEC1913051F48111BAC141305B
:101FF000510509F0B6C18091CB058D7F0BC09330A0
:1020000061F48111AEC14130510509F0AAC180913E
:10201000CB0582608093CB05A4C1953049F48091B3
:10202000E80080FFFCCF822F80688093E30099C195
:10203000963009F05EC00B8D1C8D22E01092E900F5
:1020400010927A0410927904F21232C0109278043D
:10205000109277040E94010E99E0BE016F5F7F4FDE
:10206000DB01E92F1D92EA95E9F79983FA8291E065
:102070009E8390EA98879AEF99872091790430910E
:102080007A04275F3F4F3C832B838D831092E900B6
:1020900010927A04109279041093780400937704D4
:1020A00049E050E080E00E94C80C0E94010E59C136
:1020B00010937804009377040E948F14DC01129629
:1020C0000D911C9113970115110509F4BFC0D8019A
:1020D000ED91FC910480F581E02DBE016B5E7F4F98
:1020E000C8010995009709F0ACC0F8010085118579
:1020F000EACF973009F439C1983021F481E0809318
:10210000F1002FC1993009F02CC1837009F02DC165
:10211000EDE1F1E081E031E096E32081211109C099
:102120008EE78093EA001092EA008F8980937C0406
:1021300018C18093E9003093EB0021912093EC00CB
:102140009093ED008F5F873041F7EACF8B8D9C8DA8
:102150001092E90010927A04109279049093780416
:1021600080937704898D811150C08E899D89913A21
:1021700049F4813209F0F9C047E050E064E071E0D1
:1021800080E0B8C0913209F0F0C0833269F48F89E1
:10219000988DA0E0B0E08093000190930101A0939E
:1021A0000201B0930301DDC0803269F48091E80040
:1021B00082FFFCCF67E084E091E00E94EF0C8BEFA0
:1021C0008093E80006C0823209F0CBC08F898093EB
:1021D0000B018091C905811103C0E0E0F8E002C065
:1021E000EEEFFAE08091040190910501A0910601C3
:1021F000B0910701803B9440A105B10509F07DC075
:1022000080910B0180FF95C078C00E948F14DC0183
:1022100012960D911C9113970115110509F4A5C093
:10222000D801ED91FC910190F081E02DBE016B5E33
:102230007F4FC8010995811194C0F801008511856F
:10224000EBCF181619060CF48CC08FC0F1E0FF1606
:1022500009F447C0F3E0FF1288C08F89882309F48E
:1022600043C0823029F440E86BE089E295E006C083
:10227000813051F440E86BE08DE195E00E94930CD1
:10228000882309F472C06DC0833009F06EC00E94CB
:102290008F14DC011296ED90FC9013978E010F5F66
:1022A0001F4F6801E114F10479F0D701ED91FC9121
:1022B0000680F781E02DB801C7010995080F111DAF
:1022C000F701E084F184EECFD8011C92F601019071
:1022D0000020E9F73197BF016C197D0940E0C60184
:1022E000CDCF6BE075E002C067E075E0FB01449183
:1022F00050E080E80E94C80C34C00FB6F894A8954E
:1023000080916000886180936000109260000FBE31
:10231000A895EE3F2AE0F20739F08091FE0A9091ED
:10232000FF0A918380831DC01092FF0A1092FE0A5B
:1023300018C0EE3F8AE0F80731F0808191819093D8
:10234000FF0A8093FE0A87E797E7918380839BE0EB
:1023500088E10FB6F894A895809360000FBE909323
:1023600060008EEF8093E80003C081E28093EB0071
:102370006C960FB6F894DEBF0FBECDBFDF91CF9144
:10238000FF91EF91BF91AF919F918F917F916F914D
:102390005F914F913F912F911F910F91FF90EF907F
:1023A000DF90CF900F900FBE0F901F901895EF9277
:1023B000FF920F931F93CF93DF938C017B01C0E0BB
:1023C000D0E0F701EC0FFD1F6491662361F0D801A6
:1023D000ED91FC910190F081E02DC8010995892BC8
:1023E00011F02196EECFCE01DF91CF911F910F9189
:1023F000FF90EF9008956115710579F0FB01019050
:102400000020E9F73197AF01461B570BDC01ED9136
:10241000FC910280F381E02D099480E090E0089522
:102420000F931F93CF93DF93EC010E94FB118C015C
:1024300066EE73E0CE010E94FB11800F911FDF91C9
:10244000CF911F910F9108951F920F920FB60F9287
:1024500011242F933F934F935F936F937F938F93A9
:102460009F93AF93BF93EF93FF938DEC94E00E9403
:102470006D0DFF91EF91BF91AF919F918F917F91E2
:102480006F915F914F913F912F910F900FBE0F90E1
:102490001F9018951F920F920FB60F9211242F9331
:1024A0008F939F93EF93FF93E091DD04F091DE040F
:1024B0008081E091E304F091E40482FD12C09081F8
:1024C0008091E6048F5F8F732091E704821751F0AB
:1024D000E091E604F0E0E353FB4F958F8093E60430
:1024E00001C08081FF91EF919F918F912F910F906B
:1024F0000FBE0F901F9018950F931F93CF93DF93EC
:10250000EC018B0141E050E069EE73E08F85988922
:102510000E945F18F80144815581608171818F8527
:102520009889DF91CF911F910F910C945F18CF92F2
:10253000DF92EF92FF92CF93DF93EC016A017B0170
:10254000E889F98982E080834115514E6105710562
:10255000B1F060E079E08DE390E0A70196010E9480
:102560006F1CDA01C9010197A109B109B695A795B8
:10257000979587959C01211580E13807A8F0E88997
:10258000F989108260E874E88EE190E0A701960175
:102590000E946F1CDA01C9010197A109B109B69522
:1025A000A795979587959C01EC85FD853083EE85F1
:1025B000FF852083188EEC89FD8986E08083EA8977
:1025C000FB89808180618083EA89FB8980818860C2
:1025D0008083EA89FB89808180688083EA89FB891E
:1025E00080818F7D8083DF91CF91FF90EF90DF908E
:1025F000CF9008950F931F93CF93DF9300D0CDB763
:10260000DEB78C01FC018189882369F087E7898323
:1026100086858A8342E050E0BE016F5F7F4F8485EC
:1026200095850E944605F801118A0F900F90DF9161
:10263000CF911F910F91089520917C04211103C027
:102640008FEF9FEF08955FB7F89422E02093E900A1
:102650002091F20030E01216130614F421E030E06D
:10266000422FFC0184E6415038F0289880937B0487
:102670009091F1009193F7CF2115310521F08091D0
:10268000F200882319F05FBFC90108958BE680939B
:10269000E800F9CFEF92FF920F931F93CF93DF9350
:1026A000EC017B01042F8DE794E00E94AF03181624
:1026B0001906CCF78DE794E00E947B04182F8DE774
:1026C00094E00E9457041A3039F48A30E1F48DE71F
:1026D00094E00E947B0417C01D30B9F31F3F51F3F3
:1026E000612FC7010E94B918002339F06BEE73E027
:1026F0008DE794E00E94FB11DDCF612F8DE794E020
:102700000E948E03D7CF63E074E08DE794E00E94CF
:102710001012198218821B821A821D821C82B70134
:10272000CE010E94330ECE01DF91CF911F910F9108
:10273000FF90EF900895CF93DF93BC018DE794E075
:102740000E94D711EC0166EE73E08DE794E00E94E1
:10275000FB118C0F9D1FDF91CF910895CF93DF93D5
:10276000FC0144815581608171818DE794E00E9474
:10277000CD03EC0166EE73E08DE794E00E94FB115F
:102780008C0F9D1FDF91CF910895CF93DF93FC01B4
:1027900024813581232B71F0FB01DC01CD91DC918B
:1027A00060817181CE010E949C1E009719F08C1BE4
:1027B0009D0B02C08FEF9FEFDF91CF910895CF92D5
:1027C000DF92EF92FF920F931F93CF93DF93CDB7DA
:1027D000DEB7A1970FB6F894DEBF0FBECDBF282F8E
:1027E00030E040E050E019A28E010F5D1F4F8AE0FB
:1027F000C82ED12CE12CF12CCA01B901A7019601F8
:102800000E946F1C605DF80162938F0121153105F4
:102810004105510589F7BF018DE794E00E94FB1146
:10282000A1960FB6F894DEBF0FBECDBFDF91CF915A
:102830001F910F91FF90EF90DF90CF900895EEE8F9
:10284000F5E04491EFE6F5E02491E0E5F5E09491C0
:10285000992309F452C04423E1F150E0FA01319781
:10286000EF30F105B0F5EA5AFF4F0C94911C30910E
:1028700080003F7707C0309180003F7D03C03091DA
:102880008000377F3093800024C034B53F7702C08A
:1028900034B53F7D34BD1DC0309190003F7707C0F7
:1028A000309190003F7D03C030919000377F30938E
:1028B00090000FC03091C0003F7703C03091C0003E
:1028C0003F7D3093C00005C03091C200377F309308
:1028D000C200E92FF0E0EE0FFF1FEB5CFA4FA5916D
:1028E000B4919FB7F894811104C08C91209528234E
:1028F00002C0EC912E2B2C939FBF08952FB7F89414
:1029000083E08093E9009091E800892F807295FF21
:1029100004C09091F20080E4891B2FBF089580913C
:10292000C10581110DC082E08093BD0584E08093D4
:10293000BE051092C0051092BF0581E08093C105CD
:102940008DEB95E008958F929F92AF92BF92CF92B8
:10295000DF92EF92FF926B017C010E9490174B0176
:102960005C01C114D104E104F104F1F00E9490175C
:10297000DC01CB0188199909AA09BB09883E93405B
:10298000A105B10570F321E0C21AD108E108F108F0
:1029900088EE880E83E0981EA11CB11CC114D104DE
:1029A000E104F10419F7DDCFFF90EF90DF90CF90B5
:1029B000BF90AF909F908F9008952F923F924F922B
:1029C0005F926F927F928F929F92AF92BF92CF92BF
:1029D000DF92EF92FF920F931F93CF93DF93CDB7C8
:1029E000DEB72E970FB6F894DEBF0FBECDBF9E8721
:1029F0008D873B0129019A01200F311F3A832983DA
:102A00008A80912C22242A94322CCB01840F951F8A
:102A100098878F83D201A00FB11FBA87A987F701CA
:102A2000EC0DFD1DFC87EB87AD85BE8518968C915E
:102A30001897981608F03FC114963C922E9213975F
:102A400015968D919C911697DC01ED91FC9101906A
:102A5000F081E02D6FEF09956FEF8D859E850E94C7
:102A60002F05ED85FE8585819681DC01ED91FC9138
:102A70000190F081E02DAD85BE856C910995ED85C5
:102A8000FE856081CF010E942F05AD85BE8515961C
:102A90008D919C911697DC01ED91FC910190F08154
:102AA000E02D682D0995682D8D859E850E942F0546
:102AB000ED85FE8585819681DC01ED91FC9101908B
:102AC000F081E02D6981099569818D859E850E943F
:102AD0002F055301EF81F885AE16BF06C1F0AD8515
:102AE000BE8515968D919C9116978501DC01ED911F
:102AF000FC910190F081E02DD5016D915D0109956A
:102B0000F80160818D859E850E942F05E3CF8201AB
:102B1000AD85BE8515968D919C911697E985FA85B0
:102B20000E171F0791F05801DC01ED91FC91019007
:102B3000F081E02DD8016D918D010995F50160813D
:102B40008D859E850E942F05E3CFAD85BE851496A9
:102B50006C91DC01ED91FC910190F081E02D0995E3
:102B6000ED85FE8585819681DC01ED91FC910190DA
:102B7000F081E02DAD85BE8513966C91099568ECCA
:102B800070E08D859E850E94EA048F3F910509F0D3
:102B900086C0ED85FE85348223826FEFCF010E94CF
:102BA0002F0565E070E08D859E850E94EA04AD8565
:102BB000BE856C91262F30E08217930709F06FC015
:102BC000CD010E942F056AE070E08D859E850E94F0
:102BD000EA045C0197FD63C0682F8D859E850E9485
:102BE0002F056AE070E08D859E850E94EA048C01C5
:102BF00097FD55C0682F8D859E850E942F05AC825C
:102C00001B82EB81FC810E0F1F1F57019701200FC4
:102C1000311F3E832D838D819E81A816B906C1F098
:102C2000AB85BC85AA16BB0699F065E070E08D8582
:102C30009E850E94EA0497FD07C0F5018083682FF6
:102C40008D859E850E942F05FFEFAF1ABF0AE3CF47
:102C500065E070E08D859E850E94EA045C0197FD29
:102C60001EC065E070E08D859E850E94EA0497FD98
:102C700016C0BA2CAA248A0D9B1DAD85BE8513965D
:102C80002D913C9114978217930749F48C918F5F93
:102C90008C93C801C016D10680F4C6010EC093946F
:102CA00064E670E080E090E00E94A3148D859E852C
:102CB0000E94CE04B9CE8FEF9FEF2E960FB6F894F8
:102CC000DEBF0FBECDBFDF91CF911F910F91FF905F
:102CD000EF90DF90CF90BF90AF909F908F907F90BC
:102CE0006F905F904F903F902F900895AF92BF925A
:102CF000CF92DF92EF92FF920F931F93CF93DF93C8
:102D000000D01F92CDB7DEB7FC01228921111FC070
:102D10005C01138A8FE4898380E48B8386858A83B0
:102D20007F01F4E1EF0EF11C80E4C82ED12C00E00D
:102D300010E020E030E043E050E0BE016F5F7F4FE5
:102D4000F501848595850E94DD14F501828B0F9035
:102D50000F900F90DF91CF911F910F91FF90EF9007
:102D6000DF90CF90BF90AF9008958F929F92AF92D7
:102D7000BF92CF92DF92EF92FF920F931F93CF9368
:102D8000DF93CDB7DEB728970FB6F894DEBF0FBE3E
:102D9000CDBF5C014B016DEE73E0CE0101960E9448
:102DA0001E0FC5010E94FA1286E090E00E94971C57
:102DB0008C01BE016F5F7F4F0E94040FD5015096BA
:102DC0001C930E931F97CE0101960E94C70E66EFCB
:102DD00073E0CE0101960E941E0FBE016F5F7F4F10
:102DE000C5010E947C12CE0101960E94C70EB4015B
:102DF000C5010E947C1282E58F83D5011F96ED915B
:102E0000FC915097048115812081318152E0C52EBB
:102E1000D12CFE0131967F0141E050E0BE01695F97
:102E20007F4F1C968D919C911D970E94DD148A8185
:102E3000D5011E968C931E971F960D911C9150974D
:102E40000115110531F0C8010E94C70EC8010E948A
:102E50002F1DF501108A17868981811102C081E03A
:102E6000818B42E7942E9982D5011E968C911E97F4
:102E70008A83CC24C394D12CFE0137967F0100E0D5
:102E800010E020E030E042E050E0BE016F5F7F4F95
:102E90001C968D919C911D970E94DD148F8181302D
:102EA00039F464E670E080E090E00E94A314DBCF88
:102EB00087E58F83D5011E968C911E97888782E0C7
:102EC000C82ED12CFE0131967F0100E010E020E0F9
:102ED00030E042E050E0BE01695F7F4F1C968D916B
:102EE0009C911D970E94DD14898190E0982F88277E
:102EF0002A81820F911D28960FB6F894DEBF0FBE6F
:102F0000CDBFDF91CF911F910F91FF90EF90DF9098
:102F1000CF90BF90AF909F908F9008950E947E1E9B
:102F20003FB7F8948091D6059091D705A091D80528
:102F3000B091D90526B5A89B05C02F3F19F0019681
:102F4000A11DB11D3FBFBA2FA92F982F8827820F2F
:102F5000911DA11DB11DBC01CD0142E0660F771F7F
:102F6000881F991F4A95D1F708951F920F920FB6A7
:102F70000F9211242F933F938F939F93AF93BF93FF
:102F80008091CC059091CD05A091CE05B091CF0553
:102F90003091D50523E0230F2D3720F40196A11D94
:102FA000B11D05C026E8230F0296A11DB11D209377
:102FB000D5058093CC059093CD05A093CE05B09315
:102FC000CF058091D6059091D705A091D805B091F5
:102FD000D9050196A11DB11D8093D6059093D70503
:102FE000A093D805B093D905BF91AF919F918F91D0
:102FF0003F912F910F900FBE0F901F901895AF9299
:10300000BF92CF92DF92EF92FF920F931F93CF93D5
:10301000DF93DC01CD90DC901197C114D10409F449
:1030200043C01496CD91DC9115972097E9F18C015E
:1030300076015701BFEFAB1ABB0AF7018081082E5A
:10304000000C990B0E942C1C892B11F07501F1CFFB
:103050002197CC0DDD1D8881082E000C990B0E9454
:103060002C1C892B29F0CE15DF0510F02197F3CF0A
:10307000AE014F5F5F4F4E195F09D80115965C9303
:103080004E931497CE14DF0420F4B701C6010E94BA
:10309000831ED801ED91FC91119714968D919C910E
:1030A0001597E80FF91F1082DF91CF911F910F91B3
:1030B000FF90EF90DF90CF90BF90AF900895EF9288
:1030C000FF920F931F93CF93DF936115710511F456
:1030D00080E01CC041155105C1F07B01EC018C81E1
:1030E0009D818A01080F191FB801CE010E946D0E43
:1030F000882371F3288139818C819D81B701820FEA
:10310000931F0E94951E1D830C8381E0DF91CF9158
:103110001F910F91FF90EF900895CF93DF93EC01F3
:103120006115710561F0FB0101900020E9F731970D
:10313000AF01461B570B0E945F18811103C0CE01DF
:103140000E94940ECE01DF91CF910895CF93DF932B
:10315000EC01FB0144815581608171810E945F18FF
:10316000811103C0CE010E94940ECE01DF91CF9158
:103170000895CF93DF9300D0CDB7DEB769831A826D
:1031800041E050E0BE016F5F7F4F0E945F180F90DB
:103190000F90DF91CF910895CF93DF93EC016115EC
:1031A000710559F0FB0101900020E9F73197AF015B
:1031B000461B570B0E94A60E02C00E94940ECE0121
:1031C000DF91CF910895CF93DF9385E795E00E943B
:1031D000C70E8BE795E00E94C70ECDEBD5E0269792
:1031E000CE010E94C70E85E0C138D807C1F7DF9134
:1031F000CF910895CF93DF938DEC94E01092D0049B
:103200001092CF0448EE53E060E070E04093D104A8
:103210005093D2046093D3047093D40427E231E036
:103220003093CE042093CD042DEC30E03093DA04BB
:103230002093D9042CEC30E03093DC042093DB04A1
:1032400028EC30E03093DE042093DD0429EC30E0FC
:103250003093E0042093DF042AEC30E03093E20462
:103260002093E1042EEC30E03093E4042093E30457
:103270001092E6041092E7041092E8041092E90418
:103280001092800410927F04409381045093820432
:10329000609383047093840427E531E030937E04C7
:1032A00020937D042FEF3FEF30938A04209389040D
:1032B00010926A059093700580936F0510927105C6
:1032C000109272059093740580937305C1E8D5E060
:1032D00063E074E0CE010E941E0F269685E0CD3B90
:1032E000D807B1F763E074E08BE795E00E941E0F0A
:1032F00063E074E085E795E0DF91CF910C941E0FB9
:10330000CF93DF93CDB7DEB7C656D1090FB6F89489
:10331000DEBF0FBECDBF789484B5826084BD84B516
:10332000816084BD85B5826085BD85B5816085BDC0
:1033300080916E00816080936E0010928100809178
:103340008100826080938100809181008160809300
:103350008100809180008160809380008091910045
:1033600082608093910080919100816080939100B0
:10337000809190008160809390008091C100846072
:103380008093C1008091C10082608093C1008091D0
:10339000C10081608093C1008091C30081608093EF
:1033A000C3008091C00082608093C0008091C20001
:1033B00081608093C20080917A00846080937A005B
:1033C00080917A00826080937A0080917A00816097
:1033D00080937A0080917A00806880937A001092BE
:1033E0007C041092CB051092CA058091D7008160B1
:1033F0008093D70080EA8093D80089B5806189BD29
:1034000089B5826089BD09B400FEFDCF61E070E03E
:1034100080E090E00E94A3148091D8008F7C8061AE
:103420008093D8008091E000807F8093E0008091BD
:10343000E1008E7E8093E1008DE08093E200559A5A
:10344000209AEEEFFFE7859194918B3F9C4D19F404
:1034500081E08093C9050E947A05FF24F39488EEE9
:10346000482E83E0582E612C712C95E7C92E91E0EF
:10347000D92E2AE6222E25E0322E8091D405811104
:1034800035C163E074E0CE018F599F4F0E941E0F3B
:103490008091D20581110FC069EF73E08DE794E050
:1034A0000E94FB118091D0059091D10501969093D7
:1034B000D1058093D0058091D0059091D105459795
:1034C0007CF163E074E08DE794E00E94101280EAE2
:1034D00096E00E949B1386E696E00E949B13BE0135
:1034E0006F597F4FCE0101960E94040F40E0BE014C
:1034F0006F5F7F4FCE018B5A9F4F0E944A13BE01D0
:103500006B5A7F4FCE018F599F4F0E94330ECE01D1
:103510008B5A9F4F0E94C70ECE0101960E94C70E84
:103520001C821B824D825E826F827886DA82C9821B
:103530003E862D861A8A1B8A1C8A64E176E0CE01BB
:103540008B5A9F4F0E94CC0EBE016B5A7F4FCE010B
:1035500001960E94B516CE018B5A9F4F0E94C70E4E
:10356000CE0101960E9476168B89882359F0CE01F0
:1035700001960E94AC04682FCE018F599F4F0E9484
:10358000B918EECF68EE73E080E090E00E94A314DB
:10359000A7968EAD9FADA797892B09F49BC0A396E4
:1035A000EEADFFADA3978081882309F493C0F0921C
:1035B000D205CE018F599F4F0E94FF1763E074E040
:1035C0008DE794E00E94101263ED75E08DE794E0C2
:1035D0000E94D711CE018F599F4F0E94AE1360EA0F
:1035E00075E08DE794E00E94D711BE016F597F4FBF
:1035F000CE018B5A9F4F0E94040F40E0BE016B5AD0
:103600007F4FCE01855A9F4F0E944A13BE01655AD3
:103610007F4FCE018F599F4F0E94330ECE01855AA6
:103620009F4F0E94C70ECE018B5A9F4F0E94C70E1C
:10363000F092D4054BE050E065E671E08DEC94E04B
:103640000E94FC0C64E670E080E090E00E94A3140D
:103650006BEF73E08DEC94E00E9410128DEC94E01F
:103660000E94D50D6BEF73E08DEC94E00E94101278
:1036700041E050E062E074E08DEC94E00E94FC0CCC
:103680008FB7F8948090CC059090CD05A090CE0592
:10369000B090CF058FBF2FB7F8948091CC05909153
:1036A000CD05A091CE05B091CF052FBF88199909FE
:1036B000AA09BB09803D9740A105B10558F48DECDE
:1036C00094E00E94570D892B31F38DEC94E00E9419
:1036D000350DE1CFDA82C982CE0101960E94FA123D
:1036E000CE018F599F4F0E94C70E7DC08DE794E099
:1036F0000E947B048C010F3F8FEF180709F466C00E
:103700008091D30581110CC00E37110519F4F09288
:10371000D3055CC0602F8DEC94E00E948E0D56C0E6
:103720000033110559F440E051EE60E070E08DEC9B
:1037300094E00E94971264E074E00DC0013311051B
:1037400079F440E052EC61E070E08DEC94E00E948E
:10375000971267E174E08DE794E00E94101234C084
:103760000233110559F440E950ED63E070E08DEC4F
:1037700094E00E9497126BE274E0EDCF03331105E1
:1037800059F440E251EA67E070E08DEC94E00E9469
:1037900097126FE374E0DFCF0E37110559F44BE059
:1037A00050E065E671E08DEC94E00E94FC0C63E56E
:1037B00074E0D1CF6EE78DEC94E00E948E0D602F07
:1037C0008DEC94E00E948E0D1092D3058DEC94E068
:1037D0000E94350D8F3F2FEF920729F0682F8DE75C
:1037E00094E00E948E030E94F70D47CEFC018827CB
:1037F0009927E89421912032E9F3293010F02E30F6
:10380000C8F32B3241F02D3239F4689404C00E9481
:10381000241C820F911D219120532A30C0F31EF4E5
:10382000909581959F4F0895FB01DC0105900D92C5
:103830000020E1F70895FC0105900020E9F780954C
:1038400090958E0F9F1F08957AE0979F902D879FE8
:10385000802D910D1124089591110C94351C803206
:1038600019F089508550C8F7089599278827089539
:103870002F923F924F925F926F927F928F929F9280
:10388000AF92BF92CF92DF92EF92FF920F931F936E
:10389000CF93DF93CDB7DEB7CA1BDB0B0FB6F8941F
:1038A000DEBF0FBECDBF09942A88398848885F845F
:1038B0006E847D848C849B84AA84B984C884DF80D0
:1038C000EE80FD800C811B81AA81B981CE0FD11DB4
:1038D0000FB6F894DEBF0FBECDBFED010895A1E293
:1038E0001A2EAA1BBB1BFD010DC0AA1FBB1FEE1F7A
:1038F000FF1FA217B307E407F50720F0A21BB30BC5
:10390000E40BF50B661F771F881F991F1A9469F740
:1039100060957095809590959B01AC01BD01CF019C
:103920000895EE0FFF1F0590F491E02D09940F9379
:103930001F93CF93DF938230910510F482E090E0E3
:10394000E091DC05F091DD0520E030E0A0E0B0E0A2
:10395000309719F14081518102811381481759072D
:10396000C8F08417950769F4109731F012960C93FC
:10397000129713961C9327C00093DC051093DD0566
:1039800022C02115310519F04217530718F49A0186
:10399000BD01EF01DF01F801DBCF21153105F9F0A1
:1039A000281B390B2430310580F48A819B816115F5
:1039B000710521F0FB019383828304C09093DD05A0
:1039C0008093DC05FE01329644C0FE01E20FF31F36
:1039D0008193919322503109398328833AC02091F1
:1039E000DA053091DB05232B41F420910E01309153
:1039F0000F013093DB052093DA0520910C01309103
:103A00000D012115310541F42DB73EB7409110014C
:103A100050911101241B350BE091DA05F091DB0583
:103A2000E217F307A0F42E1B3F0B2817390778F095
:103A3000AC014E5F5F4F2417350748F04E0F5F1FF4
:103A40005093DB054093DA058193919302C0E0E047
:103A5000F0E0CF01DF91CF911F910F910895CF93A7
:103A6000DF93009709F481C0FC0132971382128220
:103A7000A091DC05B091DD05109781F420813181A2
:103A8000820F931F2091DA053091DB052817390743
:103A900051F5F093DB05E093DA0567C0ED0120E016
:103AA00030E0CE17DF0740F44A815B819E0141156B
:103AB0005105F1F0EA01F5CFD383C28340815181F2
:103AC000840F951FC817D90759F488819981840FED
:103AD000951F0296918380838A819B819383828341
:103AE0002115310529F4F093DD05E093DC053DC097
:103AF000E901FB83EA8349915991C40FD51FEC1763
:103B0000FD0761F480819181840F951F0296E90180
:103B100099838883828193819B838A83E0E0F0E0AC
:103B200012968D919C911397009719F0FD01DC017D
:103B3000F7CF8D919C9111979D012E5F3F4F820F82
:103B4000931F2091DA053091DB052817390769F4B6
:103B5000309729F41092DD051092DC0502C0138223
:103B60001282B093DB05A093DA05DF91CF9108951F
:103B7000A0E0B0E0EEEBFDE10C943C1CEC01009702
:103B800021F4CB010E94971CB4C0FC01E60FF71F83
:103B90009C0122503109E217F30708F4A8C0D901AB
:103BA0000D911C91119706171707B0F005301105FC
:103BB00008F49BC0C80104978617970708F495C0BE
:103BC00002501109061B170B019311936D937C93FF
:103BD000CF010E942F1D89C05B01A01AB10A4C01C0
:103BE000800E911EA091DC05B091DD05612C712C39
:103BF000E12CF12C109709F446C08D919C911197FE
:103C0000A815B905B1F56C0142E0C40ED11CCA1467
:103C1000DB0478F14C018A189B08640142E0C40E71
:103C2000D11C1296BC9012971396AC91B5E0CB16AE
:103C3000D10440F0B282A38391828082D9016D9336
:103C40007C9309C00E5F1F4F800F911FF901918374
:103C50008083EB2DFA2FE114F10431F0D701139694
:103C6000FC93EE93129741C0F093DD05E093DC05E1
:103C70003CC06816790608F43C017D0112960D904F
:103C8000BC91A02DB7CF8091DA059091DB05881605
:103C90009906E1F466167706C8F480910C019091BC
:103CA0000D01009741F48DB79EB7409110015091DE
:103CB0001101841B950BE817F907C8F4F093DB0595
:103CC000E093DA05F901718360830FC0CB010E9494
:103CD000971C7C01009759F0A801BE010E94831E29
:103CE000CE010E942F1DC70104C0CE0102C080E09A
:103CF00090E0CDB7DEB7EEE00C94581C81E090E088
:103D0000F8940C94B61EFB01DC0102C001900D92E8
:103D100041505040D8F70895FB01DC018D9101908E
:103D200080190110D9F3990B0895FB01DC01019072
:103D30000D920020E1F70895FB0151915523A9F060
:103D4000BF01DC014D9145174111E1F759F4CD0157
:103D50000190002049F04D9140154111C9F3FB013C
:103D60004111EFCF81E090E00197089513E0C3E6A1
:103D7000D3E004C0FE010E94911C2196C436D107F5
:063D8000C9F7F894FFCF23
:103D8600FFFFFFFF00E10000000000000000DE056D
:103D960080005858585858585831303000C18081E2
:103DA600000000000000008E0DFC0C260DD50D57FE
:103DB6000D350D490D000000008E17FC0CCA03647A
:103DC6000C8E178E178E17000000008E17FC0CCA7B
:103DD60003640C000000008E03CD035304A403AF5C
:103DE600037B045704FF00000558585858587FF9BC
:103DF60000000000005D05FC0CCA03C903C404AC46
:103E06000499042920006977696E666F20776C61D2
:103E16006E30207363616E207C206772657020228D
:103E26000022202D4135207C206772657020456E6A
:103E36006372797074696F6E207C20637574202DAF
:103E46006632202D64223A22006E6F6E650057504E
:103E560041320070736B32005750410070736B0033
:103E6600574550007765700059554E004150006225
:103E76006C696E6B2D73746172742031303000681A
:103E86006F73746E616D6520007563692073657468
:103E96002073797374656D2E4073797374656D5BE9
:103EA600305D2E686F73746E616D653D27007563B6
:103EB60069207365742061726475696E6F2E406146
:103EC600726475696E6F5B305D2E616363657373D3
:103ED6005F706F696E745F776966695F6E616D6545
:103EE6003D27007563692073657420776972656C78
:103EF6006573732E40776966692D69666163655BD4
:103F0600305D2E656E6372797074696F6E3D270041
:103F16007563692073657420776972656C65737360
:103F26002E40776966692D69666163655B305D2E33
:103F36006D6F64653D27737461270A007563692098
:103F460073657420776972656C6573732E40776943
:103F560066692D69666163655B305D2E737369649E
:103F66003D27007563692073657420776972656CF7
:103F76006573732E40776966692D69666163655B53
:103F8600305D2E6B65793D27007563692073657416
:103F960020776972656C6573732E726164696F3020
:103FA6002E6368616E6E656C3D276175746F2700C0
:103FB6007563692073657420776972656C657373C0
:103FC6002E726164696F302E636F756E7472793DFF
:103FD60027007563692064656C657465206E657479
:103FE600776F726B2E6C616E2E69706164647200FD
:103FF6007563692064656C657465206E6574776F9A
:10400600726B2E6C616E2E6E65746D61736B0075CE
:10401600636920736574206E6574776F726B2E6C9E
:10402600616E2E70726F746F3D276468637027002F
:104036006563686F202D6520220022207C20706138
:104046007373776420726F6F740075636920636F92
:104056006D6D697400626C696E6B2D73746F7000A0
:104066007769666920000D0A00FE002A002F626942
:104076006E2F617368002D63002E000A72657365EA
:10408600740A0A0053706565642073657420746F42
:10409600203537363030005370656564207365749B
:1040A60020746F20313135323030005370656564CD
:1040B6002073657420746F203235303030300053F1
:1040C600706565642073657420746F2035303030F8
:1040D60030300053656E64696E672062726964678A
:1040E6006527732073687574646F776E20636F6DD0
:0640F6006D616E64000024
:1070000055C000006EC000006CC000006AC00000E7
:1070100068C0000066C0000064C0000062C00000DC
:1070200060C000005EC00000FCC400005AC0000048
:1070300058C0000056C0000054C0000052C00000FC
:1070400050C000005DC000004CC000004AC00000FD
:1070500048C0000046C0000044C0000042C000001C
:1070600040C000003EC000003CC000003AC000002C
:1070700038C0000036C0000034C0000032C000003C
:1070800030C000002EC000002CC000002AC000004C
:1070900028C0000026C0000024C0000022C000005C
:1070A00020C000001EC000001CC0000011241FBE34
:1070B000CFEFDAE0DEBFCDBF11E0A0E0B1E0E6E463
:1070C000FFE702C005900D92A63AB107D9F711E08B
:1070D000A6EAB1E001C01D92AF3BB107E1F74FD383
:1070E00030C78ECFF89410926F001092810081E02B
:1070F00085BF15BE47985D9A289A0C9400000895A4
:107100001F920F920FB60F9211242F938F939F937C
:10711000EF93FF9310928500109284008091A60156
:107120009091A701009741F001979093A701809358
:10713000A601892B09F45D9A8091A8019091A9017B
:10714000009741F001979093A9018093A801892BA2
:1071500009F4289A8091AC019091AD010196909329
:10716000AD018093AC01E0E0F0E0859194918F5FF8
:107170009F4F49F08091AA019091AB0101969093A5
:10718000AB018093AA01FF91EF919F918F912F9175
:107190000F900FBE0F901F90189584E08093E90028
:1071A0000DC08091E8008B778093E80003C08EB318
:1071B000882351F08091E80082FFF9CF8091E800A8
:1071C00085FFEFCF8091F1000895982F83E08093A1
:1071D000E9008091E80085FD0DC08091E8008E7780
:1071E0008093E80003C08EB3882369F08091E800A3
:1071F00080FFF9CF9093F1005D9884E690E0909342
:10720000A7018093A60108954F925F926F927F929B
:107210008F929F92AF92BF92CF92DF92EF92FF92A6
:107220000F931F93CF93DF9384E08093E9008091C5
:10723000E80082FF57C2289884E690E09093A90165
:107240008093A801AADF182F853481F48CE49DE196
:107250009093AB018093AA0107B600FCFDCFF9998A
:10726000FECF81E180935700E89503C0843519F47F
:1072700094DF8DE00DC28C34E1F38035D1F3843797
:1072800021F484E4A2DF80E003C2813611F489E5B1
:10729000FFC18134B1F481DF182F7FDF90E0880FC8
:1072A000991FAA2797FDA095BA2F312F330F20E001
:1072B000442737FD4095542F822B932BA42BB52BBD
:1072C000B8C1803711F483E5E3C1833549F4C0E0E8
:1072D000D1E089917ADF21E0C730D207D1F7D9C157
:1072E000863521F481E371DF80E3D2C1833731F445
:1072F00087E86BDF85E969DF8EE1CAC18536B9F4BD
:10730000E0E0F0E093E085E090935700E89507B661
:1073100000FCFDCF80935700E89507B600FCFDCF39
:10732000E058FF4FA0E7E030FA0771F7A2CF8237AD
:1073300039F4E1E0F0E089E0809357008491A8C13E
:10734000863439F4E0E0F0E089E0809357008491DE
:107350009FC18E3439F4E3E0F0E089E08093570078
:10736000849196C1813539F4E2E0F0E089E08093C0
:10737000570084918DC1823631F489E526DF80E0A3
:1073800024DF80E885C1823419F0873609F0E5C032
:107390001092AB011092AA0100DF082FFEDEF82E3A
:1073A000FCDE682E8554823008F071C1902F80E099
:1073B000CF2DD0E0C82BD92B10926F00173609F0D3
:1073C0004BC081E180935700E895DD24CC24C39421
:1073D0003FC0E090AF01F090B0010091B101109179
:1073E000B201B6E46B16D9F4ED2DF0E0EE29FF29D9
:1073F000E4918E2FEADEDD2081F082E090E0A0E0D3
:10740000B0E0E80EF91E0A1F1B1FE092AF01F092D8
:10741000B0010093B1011093B201DC2418C0D8016F
:10742000C701B695A7959795879575D5CEDE82E06D
:1074300090E0A0E0B0E0E80EF91E0A1F1B1FE092EA
:10744000AF01F092B0010093B1011093B201219706
:10745000209709F0BECF7DC08090AF019090B00121
:10746000A090B101B090B20196E4691609F05DC038
:1074700083E0F40180935700E89507B600FCFDCF48
:1074800054C0F6E46F1661F5772031F1E090AF015A
:10749000F090B0010091B1011091B2017EDED82EC2
:1074A000CC24852D90E08C299D29F7010C01409278
:1074B0005700E895112482E090E0A0E0B0E0E80EEB
:1074C000F91E0A1F1B1FE092AF01F092B00100935A
:1074D000B1011093B20102C060DE582E742423C0A3
:1074E000E090AF01F090B0010091B1011091B201B4
:1074F00016950795F794E79450DE682FC70113D5CA
:107500008091AF019091B001A091B101B091B20111
:107510000296A11DB11D8093AF019093B001A0937D
:10752000B101B093B201219704C0552477244424BB
:107530004394209709F0A5CF96E4691641F485E0BD
:10754000F40180935700E89507B600FCFDCF8DE06D
:107550003CDE82E080936F009CC0833471F4009124
:10756000AF011091B00119DE90E021E0F8010C01AB
:1075700020935700E89511247CCE833619F5E090CE
:10758000AF01F090B0010091B1011091B20105DEA0
:10759000F701E16090E021E00C0120935700E895AD
:1075A000112482E090E0A0E0B0E0E80EF91E0A1F8E
:1075B0001B1FE092AF01F092B0010093B101109354
:1075C000B20157CE8D3661F4E091AF01F091B00178
:1075D00085E080935700E89507B600FCFDCF49CEC3
:1075E000823551F4E091AF01F091B0010591149111
:1075F000812FEBDD802F4CC0843421F5E090AF016A
:10760000F090B0010091B1011091B201169507956B
:10761000F794E794C2DD682FC70185D48091AF014C
:107620009091B001A091B101B091B2010296A11D5B
:10763000B11D8093AF019093B001A093B101B093BD
:10764000B20117CE843609F5E090AF01F090B00199
:107650000091B1011091B201D801C701B695A7956B
:107660009795879558D4B1DD82E090E0A0E0B0E036
:10767000E80EF91E0A1F1B1FE092AF01F092B00145
:107680000093B1011093B20104C08B3111F08FE36C
:107690009CDD83E08093E9009091E8008091E80010
:1076A0008E778093E80095FF04C010C08EB38823C6
:1076B000C9F08091E80080FFF9CF8091E8008E77D3
:1076C0008093E80003C08EB3882361F08091E800C6
:1076D00080FFF9CF84E08093E9008091E8008B7708
:1076E0008093E800DF91CF911F910F91FF90EF9071
:1076F000DF90CF90BF90AF909F908F907F906F90D2
:107700005F904F9008959091B701892F8F778132C4
:1077100049F58091B8018032A1F0813219F5913A92
:1077200009F58091E800877F8093E8008CE091E084
:1077300067E070E027D28091E8008B778093E800C3
:107740000895913279F48091E800877F8093E80072
:107750008CE091E067E070E079D28091E8008E776C
:107760008093E800089582E061EC42E0D1D083E0AC
:1077700061E842E1CDD084E060E842E1C9C01F93F6
:10778000209100081092000844B714BE88E10FB69B
:10779000F89480936000109260000FBE80E8E0E0F3
:1077A000F0E00FB6F89480936100E09361000FBEA3
:1077B00031E035BF92E095BF3F9A209A559A809369
:1077C00061001092610047985D9A289A1092890092
:1077D0008AEF8093880090936F0083E0809381000C
:1077E000859194918F5F9F4F11F03093AE01942F4C
:1077F00041FF19C0809109012817A9F08093000862
:10780000789480911301882339F08091AC01909194
:10781000AD018F5E9240C8F310920008F89481E0A9
:10782000809313010CC090FF04C08091AE018823A7
:1078300051F493FF09C080910901281729F0809124
:10784000AE01882309F04EDCD4D078941092AB01BD
:107850001092AA011EEF20C0D7DC4BD38091AA0161
:107860009091AB0181549F4110F0109213018091CF
:10787000B3019091B40101969093B4018093B30148
:10788000292F97FF03C0512F591B252F220F28178F
:1078900010F4479801C0479A809113018823E1F6BC
:1078A0008091E00081608093E0001CDC80E090E04B
:1078B0001F910895FA01923049F0933061F09130B0
:1078C000F9F484E191E022E130E01EC086E291E02B
:1078D0002EE330E019C0882329F484E691E024E007
:1078E00030E012C0813029F488E691E022E230E0F5
:1078F0000BC0823029F48CE891E028E130E004C02C
:1079000080E090E020E030E091838083C901089519
:107910008093E9008091EB0081608093EB001092EE
:10792000ED006093EC004093ED008091EE00881F25
:107930008827881F08958091B70188238CF403C09D
:107940008EB38823B1F08091E80082FFF9CF809157
:10795000E8008B778093E80008958EB3882349F080
:107960008091E80080FFF9CF8091E8008E778093C6
:10797000E8000895EF92FF920F931F9345D04CD0EB
:1079800008ED10E0F80180818F7780838081806826
:10799000808380818F7D808319BC1EBA1092B501CF
:1079A00080EEE82EF12CF70180818B7F8083F80137
:1079B00080818160808380E060E042E0A9DFE1EEC9
:1079C000F0E080818E7F8083E2EEF0E08081816054
:1079D0008083808188608083F70180818E7F8083AF
:1079E000F8018081806180831F910F91FF90EF905B
:1079F0000895E7EDF0E08081816080838AE482BFB2
:107A000081E08093B601B6CFE8EDF0E080818E7F13
:107A100080831092E20008951092DA001092E10043
:107A200008951F920F920FB60F9211242F933F9338
:107A30004F935F936F937F938F939F93AF93BF9376
:107A4000EF93FF938091DA0080FF1BC08091D800F4
:107A500080FF17C08091DA008E7F8093DA008091DA
:107A6000D90080FF0BC080E189BD82E189BD09B4E6
:107A700000FEFDCF81E08EBB3BD203C019BC1EBA15
:107A800037D28091E10080FF17C08091E20080FF33
:107A900013C08091E2008E7F8093E2008091E2002B
:107AA00080618093E2008091D80080628093D8004A
:107AB00019BC85E08EBB1CD28091E10084FF2CC0F4
:107AC0008091E20084FF28C080E189BD82E189BD08
:107AD00009B400FEFDCF8091D8008F7D8093D8003F
:107AE0008091E1008F7E8093E1008091E2008F7EA3
:107AF0008093E2008091E20081608093E2008091B7
:107B0000B501882331F48091E30087FD02C081E054
:107B100001C084E08EBBECD18091E10083FF21C0E5
:107B20008091E20083FF1DC08091E100877F8093F8
:107B3000E10082E08EBB1092B5018091E1008E7F62
:107B40008093E1008091E2008E7F8093E20080913B
:107B5000E20080618093E20080E060E042E0D8DEF5
:107B6000C7D1FF91EF91BF91AF919F918F917F917D
:107B70006F915F914F913F912F910F900FBE0F909A
:107B80001F9018959C014091BD015091BE01461770
:107B9000570718F4F90190E044C06115710511F020
:107BA000AB01F8CF8091E8008E778093E80040E049
:107BB00050E0F0CF8EB3882309F444C0853009F437
:107BC00043C08091E80083FF02C081E00895809166
:107BD000E80082FD31C08091E80080FF22C08091E2
:107BE000F3009091F200782F60E0292F30E0262BEF
:107BF000372B07C081918093F100415050402F5F97
:107C00003F4F4115510519F02830310598F390E0A8
:107C10002830310509F491E08091E8008E77809357
:107C2000E8004115510531F6992321F605C08EB3C0
:107C3000882341F0853041F08091E80082FFF7CF42
:107C400080E0089582E0089583E008959C01611525
:107C5000710529F48091E8008B778093E800F901A1
:107C600026C08EB3882391F1853091F18091E80090
:107C700083FF02C081E008958091E80082FFF1CF88
:107C800006C08091F10081936150704059F02091BD
:107C9000F3008091F200322F20E090E0822B932BB2
:107CA000892B79F78091E8008B778093E800611544
:107CB0007105B9F605C08EB3882341F0853041F0D7
:107CC0008091E80080FFF7CF80E0089582E008957A
:107CD00083E008950F931F93DF93CF9300D0CDB728
:107CE000DEB7E7EBF1E08091F100819381E0EF3BBB
:107CF000F807C9F708DD8091E80083FFE4C08091B0
:107D0000B7019091B801953009F46DC0963040F4F8
:107D1000913081F1913070F0933009F0D4C02AC0D5
:107D2000983009F4A3C0993009F4B2C0963009F034
:107D3000CAC07CC0803809F4C6C0823809F0C3C00C
:107D40008091BB0187708093E9008091EB001092D5
:107D5000E9002091E800277F2093E80090E025E0EB
:107D6000969587952A95E1F781708093F10010929E
:107D7000F10087C0882319F0823009F0A4C08F7108
:107D8000823009F0A0C08091B901882331F520919B
:107D9000BB01277009F497C02093E9008091EB00A4
:107DA00080FF1BC0933021F48091EB00806213C0F0
:107DB0008091EB0080618093EB0081E090E002C055
:107DC000880F991F2A95E2F78093EA001092EA0043
:107DD0008091EB0088608093EB001092E900809125
:107DE000E800877F51C0882309F06DC01091B90168
:107DF0001F770FB7F8948091E800877F8093E800A1
:107E00009ADD8091E80080FFFCCF8091E3008078CC
:107E1000812B8093E30080688093E300112311F4A9
:107E200082E001C083E08EBB0FBF4DC0805882301E
:107E300008F049C08091B9019091BA016091BB01ED
:107E4000AE014F5F5F4F36DDBC01009709F43BC0C8
:107E50008091E800877F8093E80089819A8192DE93
:107E60008091E8008B778093E8002DC0803859F529
:107E70008091E800877F8093E8008091B50180932E
:107E8000F1008091E8008E778093E80054DD1BC0FC
:107E90008823C9F49091B9019230A8F48091E80048
:107EA000877F8093E8009093B50145DD8091B5010F
:107EB000882331F48091E30087FD02C081E001C096
:107EC00084E08EBB50DC8091E80083FF0AC0809183
:107ED000EB0080628093EB008091E800877F8093C5
:107EE000E8000F900F90CF91DF911F910F910895AF
:107EF00008951F938EB3882361F01091E9001092CA
:107F0000E9008091E80083FF01C0E4DE1770109360
:107F1000E9001F910895F999FECF92BD81BDF89AAD
:107F2000992780B50895262FF999FECF1FBA92BDE3
:107F300081BD20BD0FB6F894FA9AF99A0FBE01964A
:067F40000895F894FFCF44
:107F46004341544552494E41007700080000000065
:107F5600000008011201100102000008412341003F
:107F660001000201000109023E00020100803209FF
:107F7600040000010202010005240010010424028D
:107F8600040524060001070582030800FF09040111
:107F960000020A000000070504021000010705831D
:107FA6000210000104030904220341007200640068
:107FB600750069006E006F002000590075006E00A4
:107FC60020002000200020002000000018034100AF
:107FD60072006400750069006E006F0020004C009E
:067FE6004C004300000006
:040000030000700089
:00000001FF
